{
  "contractName": "Fields",
  "abi": [
    {
      "constant": true,
      "inputs": [
        {
          "name": "i",
          "type": "uint8"
        },
        {
          "name": "k",
          "type": "uint8"
        }
      ],
      "name": "getFieldValue",
      "outputs": [
        {
          "name": "",
          "type": "uint8"
        }
      ],
      "payable": false,
      "stateMutability": "view",
      "type": "function"
    },
    {
      "constant": true,
      "inputs": [],
      "name": "getAllFieldValues",
      "outputs": [
        {
          "name": "",
          "type": "uint256"
        }
      ],
      "payable": false,
      "stateMutability": "view",
      "type": "function"
    }
  ],
  "bytecode": "0x6003805460ff1916600117905560a060408190526000608081905261002691600491610039565b5034801561003357600080fd5b506100d4565b828054600181600116156101000203166002900490600052602060002090601f016020900481019282601f1061007a57805160ff19168380011785556100a7565b828001600101855582156100a7579182015b828111156100a757825182559160200191906001019061008c565b506100b39291506100b7565b5090565b6100d191905b808211156100b357600081556001016100bd565b90565b610187806100e36000396000f3fe608060405234801561001057600080fd5b50600436106100365760003560e01c8063a5ce45131461003b578063b92b632214610079575b600080fd5b6100636004803603604081101561005157600080fd5b5060ff81358116916020013516610093565b6040805160ff9092168252519081900360200190f35b6100816100d7565b60408051918252519081900360200190f35b6000806001840360ff16600381106100a757fe5b016001830360ff16600381106100b957fe5b602081049091015460ff601f9092166101000a900416905092915050565b6000808080805b60028460ff161161015357600092505b60028360ff16116101485780600a0a60008560ff166003811061010d57fe5b018460ff166003811061011c57fe5b602081049190910154600195860195601f9092166101000a900460ff16919091029290920191016100ee565b6001909301926100de565b50925050509056fea165627a7a72305820000ec89bc648e5f3f00b644212c57a7285133b2de574fc795a8b3d2345485d120029",
  "source": "pragma solidity ^0.5.0;  /* 4.24 */\r\n\r\n\r\ncontract ERC20Interface {\r\n\r\n   /// @return total amount of tokens\r\n   function totalSupply() public view returns (uint256 );\r\n   /// @param _owner The address from which the balance will be retrieved\r\n   /// @return The balance\r\n   function balanceOf(address _owner) public view returns (uint256);\r\n\r\n   /// @notice send `_value` token to `_to` from `msg.sender`\r\n   /// @param _to The address of the recipient\r\n   /// @param _value The amount of token to be transferred\r\n   /// @return Whether the transfer was successful or not\r\n   function transfer(address _to, uint256 _value) public returns (bool success);\r\n\r\n   /// @notice send `_value` token to `_to` from `_from` on the condition it is approved by `_from`\r\n   /// @param _from The address of the sender\r\n   /// @param _to The address of the recipient\r\n   /// @param _value The amount of token to be transferred\r\n   /// @return Whether the transfer was successful or not\r\n   function transferFrom(address _from, address _to, uint256 _value) public returns (bool success);\r\n\r\n   /// @notice `msg.sender` approves `_addr` to spend `_value` tokens\r\n   /// @param _spender The address of the account able to transfer the tokens\r\n   /// @param _value The amount of wei to be approved for transfer\r\n   /// @return Whether the approval was successful or not\r\n   function approve(address _spender, uint256 _value) public returns (bool success);\r\n\r\n   /// @param _owner The address of the account owning tokens\r\n   /// @param _spender The address of the account able to transfer the tokens\r\n   /// @return Amount of remaining tokens allowed to spent\r\n   function allowance(address _owner, address _spender) public view returns (uint256 remaining);\r\n\r\n   event Transfer(address indexed _from, address indexed _to, uint256 _value);\r\n   event Approval(address indexed _owner, address indexed _spender, uint256 _value);\r\n\r\n}\r\n\r\n\r\n\r\n\r\ncontract Fields {\r\n   //if someone wants to choose a field, we need to make sure that it isn't occupied yet\r\n   // i describes the row, k the column\r\n\r\n   uint8 [3][3] internal fields;\r\n   bool internal endGame = true; // true means game has already ended (default Value is true)\r\n   string internal winnerOfGame = \"\";\r\n\r\n   function fieldChange (uint8 i, uint8 k, uint8 value) internal { //not sure if I used enum correctly here\r\n       fields[i-1][k-1] = value;\r\n   } //this function is called when sb. wants to choose a field\r\n\r\n   function getFieldValue(uint8 i, uint8 k) view public returns (uint8) {\r\n       return fields[i-1][k-1];\r\n   }\r\n\r\n   function getAllFieldValues() view public returns (uint256) {\r\n       uint8 i;\r\n       uint8 k;\r\n       uint256 result=0;\r\n       uint256 position=0;\r\n       for (i=0; i<=2; i++) {\r\n           for (k=0; k<=2; k++) {\r\n               result = result + (fields[i][k] * (10**position));\r\n               position++;\r\n           }\r\n       }\r\n\r\n       return result;\r\n   }\r\n\r\n\r\n}\r\n\r\ncontract User is Fields {\r\n\r\n   ERC20Interface internal HSLUToken;\r\n\r\n   address internal PlayerA;\r\n   address internal PlayerB;\r\n   mapping (address => uint8) internal playerSymbol;\r\n\r\n   uint8 internal playerDefined = 0;\r\n\r\n   function DefineUsers() public {\r\n       require(endGame == true);\r\n       require(PlayerB == 0x0000000000000000000000000000000000000000);\r\n\r\n       if (PlayerA == 0x0000000000000000000000000000000000000000) {\r\n           PlayerA = msg.sender;\r\n           playerSymbol[PlayerA] = 1;\r\n           playerDefined = 1;\r\n\t\t\t// check if tranfer allowed by sender\r\n\t\t\tif(!(HSLUToken.allowance(msg.sender, address(this) ) > 0)) revert('Transfer not allowed!');\r\n           //check if the transaction was received\r\n\t\t\tif(!HSLUToken.transferFrom(msg.sender, address(this), uint256(100000000000000000))) revert('Transfer aborded!');\r\n           // init fields\r\n           for (uint8 i=0; i<=2; i++) {\r\n               for (uint8 k=0; k<=2; k++) {\r\n                   fields[i][k] = 0;\r\n               }\r\n           }\r\n       }\r\n       else if (PlayerA != msg.sender) {\r\n           PlayerB = msg.sender;\r\n           playerSymbol[PlayerB] = 2;\r\n           playerDefined = 2;\r\n           endGame = false;\r\n\t\t\t// check if tranfer allowed by sender\r\n\t\t\tif(!(HSLUToken.allowance(msg.sender, address(this)) > 0)) revert('Transfer not allowed!');\r\n\t\t\t//check if the transaction was received\r\n           if(!HSLUToken.transferFrom(msg.sender, address(this), uint256(100000000000000000))) revert('Transfer aborded!');\r\n       }\r\n\t\t// revert will abord the function\r\n\r\n   }\r\n\r\n//needs a lock, so functions can't be called while game is still going on\r\n\r\n   function getPlayerA() view public returns (address) {\r\n       return PlayerA;\r\n   }\r\n\r\n   function getPlayerB() view public returns (address) {\r\n       return PlayerB;\r\n   }\r\n\r\n}\r\n\r\n\r\n\r\n/*   k=1 k=2 k=3\r\n    ___________  Plan\r\ni=1 |___|___|___|\r\ni=2 |___|___|___|\r\ni=3 |___|___|___|\r\n*/\r\n\r\ncontract Winner is User {\r\n\r\n   uint count = 0;\r\n   uint8 internal helpWinner = 0; //recognizing Winner\r\n\r\n   function wonGameColumnk (uint playerValue, uint column) internal returns (bool) {\r\n//column k\r\n       count = 0;\r\n       for (uint8 i=1; i<=3; i++) {\r\n           if (fields[i-1][column-1] == playerValue) {\r\n               count++;\r\n           }\r\n       }\r\n\r\n       if (count == 3) {\r\n           return true;\r\n       }\r\n       else {\r\n           return false;\r\n       }\r\n   }\r\n\r\n\r\n\r\n   function wonGameRowi (uint playerValue, uint row) internal returns (bool) {\r\n//row i\r\n       count = 0;\r\n       for (uint8 k=1; k<=3; k++) {\r\n           if (fields[row-1][k-1] == playerValue) {\r\n               count++;\r\n           }\r\n       }\r\n\r\n       if (count == 3) {\r\n           return true;\r\n       }\r\n       else {\r\n           return false;\r\n       }\r\n   }\r\n\r\n\r\n   function wonGameDiagonal (uint8 playerValue) internal returns (bool) {\r\n//bottom left to top right\r\n       count = 0;\r\n       uint8 i = 3;\r\n       uint8 k = 0;\r\n       for (k=0; k<=2; k++) {\r\n           i = i - 1;\r\n           if (fields[i][k] == playerValue) {\r\n               count++;\r\n           }\r\n       }\r\n\r\n       if (count == 3) {\r\n           return true;\r\n       }\r\n\r\n\r\n//top left to bottom right\r\n       count = 0;\r\n       i = 0;\r\n       for ( k=0; k<=2; k++) {\r\n           if (fields[i][k] == playerValue) {\r\n               count++;\r\n           }\r\n           i++;\r\n       }\r\n\r\n       if (count == 3) {\r\n           return true;\r\n       }\r\n       else {\r\n           return false;\r\n       }\r\n   }\r\n}\r\n\r\n\r\n\r\ncontract playGame is Winner {\r\n\r\n   uint8 internal whichPlayer = 1;\r\n   uint8 internal moveCount = 0;\r\n   uint256 playTime = 0;\r\n\r\n\r\n   event gameOver(\r\n       address Winner,\r\n       string message\r\n   );\r\n\r\n   event Error(string mistake); // is emitted if sb. won the gameOver\r\n\r\n   function checkTime() public {\r\n       if (!endGame && now > playTime + 10 minutes) {\r\n           if (address(whichPlayer) == PlayerA) {\r\n               winner(PlayerB);\r\n           }\r\n           if (address(whichPlayer) == PlayerB) {\r\n               winner(PlayerA);\r\n           }\r\n       }\r\n   }\r\n\r\n\r\n\tconstructor(address _HSLUToken) public {\r\n\t        HSLUToken = ERC20Interface(_HSLUToken);\r\n   }\r\n\r\n\r\n   function statusInit()  view public returns (uint8) {\r\n       return playerDefined;\r\n\r\n   }\r\n\r\n   function whoseTurn() view public returns (uint8) {\r\n       if (whichPlayer == 1) {\r\n           return 1;\r\n       }\r\n       else {\r\n           return 2;\r\n       }\r\n   }\r\n\r\n   function checkWinner () view public returns (uint8) {\r\n       if (endGame) {\r\n           return helpWinner;\r\n       }\r\n       else {\r\n           return 0;\r\n       }\r\n   }\r\n\r\n\tfunction whoAmI() view public returns (uint8) {\r\n       if (PlayerA == msg.sender) {\r\n           return 1;\r\n       }\r\n       else if (PlayerB == msg.sender) {\r\n           return 2;\r\n       }\r\n       else{\r\n           return 0;\r\n       }\r\n   }\r\n\r\n   function getTime() view public returns (uint256) {\r\n       return playTime;\r\n   }\r\n\r\n\r\n   function Play(uint8 i, uint8 k) public {\r\n       require(playerDefined == 2);\r\n       uint8 playerValue = playerSymbol[msg.sender];\r\n\r\n       if (whichPlayer == playerValue) {\r\n           if (fields[i-1][k-1] == 0) {\r\n\r\n               fieldChange (i, k, playerSymbol[msg.sender]);\r\n\r\n               if (msg.sender == PlayerA) {\r\n                   whichPlayer = 2;\r\n               }\r\n               else {\r\n                   whichPlayer = 1;\r\n               }\r\n\r\n               moveCount ++;\r\n               playTime = now;\r\n               //PlayerB is allowed to play now\r\n               //checking if PlayerA has won:\r\n               if (wonGameColumnk(playerValue, k) == true) {\r\n                   winner(msg.sender);\r\n               }\r\n               if (wonGameRowi(playerValue, i) == true) {\r\n                   winner(msg.sender);\r\n               }\r\n               if (wonGameDiagonal(playerValue) == true) {\r\n                   winner(msg.sender);\r\n               }\r\n               if (moveCount == 9) {\r\n                   winnerNobody();\r\n               }\r\n           }\r\n           else {\r\n               emit Error(\"field is already occupied\");\r\n           }\r\n       }\r\n\r\n       else {\r\n           emit Error(\"it's not your turn yet\");\r\n       }\r\n\r\n   } //function which is called by PlayerA to choose field i,k\r\n\r\n\r\n\r\n   function reset() internal {\r\n       endGame = true;\r\n       playerDefined = 0;\r\n       PlayerA = 0x0000000000000000000000000000000000000000;\r\n       PlayerB = 0x0000000000000000000000000000000000000000;\r\n       whichPlayer = 1;\r\n       moveCount = 0;\r\n   }\r\n\r\n   function winner(address checkWinnerId) internal {\r\n       emit gameOver(checkWinnerId, \"has won the Game\");\r\n\r\n\t\tif(!HSLUToken.transfer(checkWinnerId, uint256(200000000000000000))) revert();\r\n\r\n       if (checkWinnerId == PlayerA) {\r\n           helpWinner = 1;\r\n       }\r\n\r\n       else {\r\n           helpWinner = 2;\r\n       }\r\n       reset();\r\n\r\n   }\r\n\r\n\r\n   function winnerNobody() internal {\r\n       helpWinner = 3;\r\n\t\tif(!HSLUToken.transfer(PlayerA, uint256(100000000000000000))) revert();\r\n\t\tif(!HSLUToken.transfer(PlayerB, uint256(100000000000000000))) revert();\r\n\r\n       reset();\r\n   }\r\n\r\n}\r\n",
  "sourcePath": "/Users/fbweinga/github/TicTacToe/solidity/contracts/TicTacToe.sol",
  "compiler": {
    "name": "solc",
    "version": "0.5.8+commit.23d335f2.Emscripten.clang"
  },
  "schemaVersion": "3.0.11",
  "updatedAt": "2020-10-17T16:45:42.815Z",
  "devdoc": {
    "methods": {}
  },
  "userdoc": {
    "methods": {}
  }
}